{
  "_format": "hh-sol-artifact-1",
  "contractName": "NewContr",
  "sourceName": "contracts/New.sol",
  "abi": [
    {
      "inputs": [],
      "stateMutability": "nonpayable",
      "type": "constructor"
    },
    {
      "anonymous": false,
      "inputs": [
        {
          "indexed": false,
          "internalType": "string",
          "name": "name",
          "type": "string"
        },
        {
          "indexed": false,
          "internalType": "uint256",
          "name": "cost",
          "type": "uint256"
        }
      ],
      "name": "Product",
      "type": "event"
    },
    {
      "inputs": [
        {
          "internalType": "uint256",
          "name": "",
          "type": "uint256"
        }
      ],
      "name": "itemsMap",
      "outputs": [
        {
          "internalType": "uint256",
          "name": "id",
          "type": "uint256"
        },
        {
          "internalType": "string",
          "name": "name",
          "type": "string"
        },
        {
          "internalType": "string",
          "name": "category",
          "type": "string"
        },
        {
          "internalType": "string",
          "name": "image",
          "type": "string"
        },
        {
          "internalType": "uint256",
          "name": "cost",
          "type": "uint256"
        }
      ],
      "stateMutability": "view",
      "type": "function"
    },
    {
      "inputs": [],
      "name": "owner",
      "outputs": [
        {
          "internalType": "address",
          "name": "",
          "type": "address"
        }
      ],
      "stateMutability": "view",
      "type": "function"
    },
    {
      "inputs": [
        {
          "internalType": "uint256",
          "name": "_id",
          "type": "uint256"
        },
        {
          "internalType": "string",
          "name": "_name",
          "type": "string"
        },
        {
          "internalType": "string",
          "name": "_category",
          "type": "string"
        },
        {
          "internalType": "string",
          "name": "_image",
          "type": "string"
        },
        {
          "internalType": "uint256",
          "name": "_cost",
          "type": "uint256"
        }
      ],
      "name": "product",
      "outputs": [],
      "stateMutability": "nonpayable",
      "type": "function"
    }
  ],
  "bytecode": "0x608060405234801561001057600080fd5b50336000806101000a81548173ffffffffffffffffffffffffffffffffffffffff021916908373ffffffffffffffffffffffffffffffffffffffff160217905550610aa1806100606000396000f3fe608060405234801561001057600080fd5b50600436106100415760003560e01c80630fff86b6146100465780638da5cb5b14610062578063bace4b6714610080575b600080fd5b610060600480360381019061005b919061050f565b6100b4565b005b61006a61018d565b604051610077919061061f565b60405180910390f35b61009a6004803603810190610095919061063a565b6101b1565b6040516100ab9594939291906106f5565b60405180910390f35b60006040518060a0016040528087815260200186815260200185815260200184815260200183815250905080600160008881526020019081526020016000206000820151816000015560208201518160010190816101129190610969565b5060408201518160020190816101289190610969565b50606082015181600301908161013e9190610969565b50608082015181600401559050507f155a77b67df8f5d208a8ff7144365d9a77188c75dbdc66f2a5a9163d31c766fe858360405161017d929190610a3b565b60405180910390a1505050505050565b60008054906101000a900473ffffffffffffffffffffffffffffffffffffffff1681565b60016020528060005260406000206000915090508060000154908060010180546101da9061078c565b80601f01602080910402602001604051908101604052809291908181526020018280546102069061078c565b80156102535780601f1061022857610100808354040283529160200191610253565b820191906000526020600020905b81548152906001019060200180831161023657829003601f168201915b5050505050908060020180546102689061078c565b80601f01602080910402602001604051908101604052809291908181526020018280546102949061078c565b80156102e15780601f106102b6576101008083540402835291602001916102e1565b820191906000526020600020905b8154815290600101906020018083116102c457829003601f168201915b5050505050908060030180546102f69061078c565b80601f01602080910402602001604051908101604052809291908181526020018280546103229061078c565b801561036f5780601f106103445761010080835404028352916020019161036f565b820191906000526020600020905b81548152906001019060200180831161035257829003601f168201915b5050505050908060040154905085565b6000604051905090565b600080fd5b600080fd5b6000819050919050565b6103a681610393565b81146103b157600080fd5b50565b6000813590506103c38161039d565b92915050565b600080fd5b600080fd5b6000601f19601f8301169050919050565b7f4e487b7100000000000000000000000000000000000000000000000000000000600052604160045260246000fd5b61041c826103d3565b810181811067ffffffffffffffff8211171561043b5761043a6103e4565b5b80604052505050565b600061044e61037f565b905061045a8282610413565b919050565b600067ffffffffffffffff82111561047a576104796103e4565b5b610483826103d3565b9050602081019050919050565b82818337600083830152505050565b60006104b26104ad8461045f565b610444565b9050828152602081018484840111156104ce576104cd6103ce565b5b6104d9848285610490565b509392505050565b600082601f8301126104f6576104f56103c9565b5b813561050684826020860161049f565b91505092915050565b600080600080600060a0868803121561052b5761052a610389565b5b6000610539888289016103b4565b955050602086013567ffffffffffffffff81111561055a5761055961038e565b5b610566888289016104e1565b945050604086013567ffffffffffffffff8111156105875761058661038e565b5b610593888289016104e1565b935050606086013567ffffffffffffffff8111156105b4576105b361038e565b5b6105c0888289016104e1565b92505060806105d1888289016103b4565b9150509295509295909350565b600073ffffffffffffffffffffffffffffffffffffffff82169050919050565b6000610609826105de565b9050919050565b610619816105fe565b82525050565b60006020820190506106346000830184610610565b92915050565b6000602082840312156106505761064f610389565b5b600061065e848285016103b4565b91505092915050565b61067081610393565b82525050565b600081519050919050565b600082825260208201905092915050565b60005b838110156106b0578082015181840152602081019050610695565b60008484015250505050565b60006106c782610676565b6106d18185610681565b93506106e1818560208601610692565b6106ea816103d3565b840191505092915050565b600060a08201905061070a6000830188610667565b818103602083015261071c81876106bc565b9050818103604083015261073081866106bc565b9050818103606083015261074481856106bc565b90506107536080830184610667565b9695505050505050565b7f4e487b7100000000000000000000000000000000000000000000000000000000600052602260045260246000fd5b600060028204905060018216806107a457607f821691505b6020821081036107b7576107b661075d565b5b50919050565b60008190508160005260206000209050919050565b60006020601f8301049050919050565b600082821b905092915050565b60006008830261081f7fffffffffffffffffffffffffffffffffffffffffffffffffffffffffffffffff826107e2565b61082986836107e2565b95508019841693508086168417925050509392505050565b6000819050919050565b600061086661086161085c84610393565b610841565b610393565b9050919050565b6000819050919050565b6108808361084b565b61089461088c8261086d565b8484546107ef565b825550505050565b600090565b6108a961089c565b6108b4818484610877565b505050565b5b818110156108d8576108cd6000826108a1565b6001810190506108ba565b5050565b601f82111561091d576108ee816107bd565b6108f7846107d2565b81016020851015610906578190505b61091a610912856107d2565b8301826108b9565b50505b505050565b600082821c905092915050565b600061094060001984600802610922565b1980831691505092915050565b6000610959838361092f565b9150826002028217905092915050565b61097282610676565b67ffffffffffffffff81111561098b5761098a6103e4565b5b610995825461078c565b6109a08282856108dc565b600060209050601f8311600181146109d357600084156109c1578287015190505b6109cb858261094d565b865550610a33565b601f1984166109e1866107bd565b60005b82811015610a09578489015182556001820191506020850194506020810190506109e4565b86831015610a265784890151610a22601f89168261092f565b8355505b6001600288020188555050505b505050505050565b60006040820190508181036000830152610a5581856106bc565b9050610a646020830184610667565b939250505056fea264697066735822122035f2e47361eebd4ff3580c190dc2cc1b2590a56481190f1fb6156e9a690faf4f64736f6c63430008110033",
  "linkReferences": {},
  "deployedLinkReferences": {}
}