{"contracts/New.sol":{"NewContr":{"abi":[{"inputs":[],"stateMutability":"nonpayable","type":"constructor"},{"anonymous":false,"inputs":[{"indexed":false,"internalType":"string","name":"name","type":"string"},{"indexed":false,"internalType":"uint256","name":"cost","type":"uint256"}],"name":"Product","type":"event"},{"inputs":[{"internalType":"uint256","name":"","type":"uint256"}],"name":"itemsMap","outputs":[{"internalType":"uint256","name":"id","type":"uint256"},{"internalType":"string","name":"name","type":"string"},{"internalType":"string","name":"category","type":"string"},{"internalType":"string","name":"image","type":"string"},{"internalType":"uint256","name":"cost","type":"uint256"}],"stateMutability":"view","type":"function"},{"inputs":[],"name":"owner","outputs":[{"internalType":"address","name":"","type":"address"}],"stateMutability":"view","type":"function"},{"inputs":[{"internalType":"uint256","name":"_id","type":"uint256"},{"internalType":"string","name":"_name","type":"string"},{"internalType":"string","name":"_category","type":"string"},{"internalType":"string","name":"_image","type":"string"},{"internalType":"uint256","name":"_cost","type":"uint256"}],"name":"product","outputs":[],"stateMutability":"nonpayable","type":"function"}],"evm":{"bytecode":{"linkReferences":{},"object":"608060405234801561001057600080fd5b50336000806101000a81548173ffffffffffffffffffffffffffffffffffffffff021916908373ffffffffffffffffffffffffffffffffffffffff160217905550610aa1806100606000396000f3fe608060405234801561001057600080fd5b50600436106100415760003560e01c80630fff86b6146100465780638da5cb5b14610062578063bace4b6714610080575b600080fd5b610060600480360381019061005b919061050f565b6100b4565b005b61006a61018d565b604051610077919061061f565b60405180910390f35b61009a6004803603810190610095919061063a565b6101b1565b6040516100ab9594939291906106f5565b60405180910390f35b60006040518060a0016040528087815260200186815260200185815260200184815260200183815250905080600160008881526020019081526020016000206000820151816000015560208201518160010190816101129190610969565b5060408201518160020190816101289190610969565b50606082015181600301908161013e9190610969565b50608082015181600401559050507f155a77b67df8f5d208a8ff7144365d9a77188c75dbdc66f2a5a9163d31c766fe858360405161017d929190610a3b565b60405180910390a1505050505050565b60008054906101000a900473ffffffffffffffffffffffffffffffffffffffff1681565b60016020528060005260406000206000915090508060000154908060010180546101da9061078c565b80601f01602080910402602001604051908101604052809291908181526020018280546102069061078c565b80156102535780601f1061022857610100808354040283529160200191610253565b820191906000526020600020905b81548152906001019060200180831161023657829003601f168201915b5050505050908060020180546102689061078c565b80601f01602080910402602001604051908101604052809291908181526020018280546102949061078c565b80156102e15780601f106102b6576101008083540402835291602001916102e1565b820191906000526020600020905b8154815290600101906020018083116102c457829003601f168201915b5050505050908060030180546102f69061078c565b80601f01602080910402602001604051908101604052809291908181526020018280546103229061078c565b801561036f5780601f106103445761010080835404028352916020019161036f565b820191906000526020600020905b81548152906001019060200180831161035257829003601f168201915b5050505050908060040154905085565b6000604051905090565b600080fd5b600080fd5b6000819050919050565b6103a681610393565b81146103b157600080fd5b50565b6000813590506103c38161039d565b92915050565b600080fd5b600080fd5b6000601f19601f8301169050919050565b7f4e487b7100000000000000000000000000000000000000000000000000000000600052604160045260246000fd5b61041c826103d3565b810181811067ffffffffffffffff8211171561043b5761043a6103e4565b5b80604052505050565b600061044e61037f565b905061045a8282610413565b919050565b600067ffffffffffffffff82111561047a576104796103e4565b5b610483826103d3565b9050602081019050919050565b82818337600083830152505050565b60006104b26104ad8461045f565b610444565b9050828152602081018484840111156104ce576104cd6103ce565b5b6104d9848285610490565b509392505050565b600082601f8301126104f6576104f56103c9565b5b813561050684826020860161049f565b91505092915050565b600080600080600060a0868803121561052b5761052a610389565b5b6000610539888289016103b4565b955050602086013567ffffffffffffffff81111561055a5761055961038e565b5b610566888289016104e1565b945050604086013567ffffffffffffffff8111156105875761058661038e565b5b610593888289016104e1565b935050606086013567ffffffffffffffff8111156105b4576105b361038e565b5b6105c0888289016104e1565b92505060806105d1888289016103b4565b9150509295509295909350565b600073ffffffffffffffffffffffffffffffffffffffff82169050919050565b6000610609826105de565b9050919050565b610619816105fe565b82525050565b60006020820190506106346000830184610610565b92915050565b6000602082840312156106505761064f610389565b5b600061065e848285016103b4565b91505092915050565b61067081610393565b82525050565b600081519050919050565b600082825260208201905092915050565b60005b838110156106b0578082015181840152602081019050610695565b60008484015250505050565b60006106c782610676565b6106d18185610681565b93506106e1818560208601610692565b6106ea816103d3565b840191505092915050565b600060a08201905061070a6000830188610667565b818103602083015261071c81876106bc565b9050818103604083015261073081866106bc565b9050818103606083015261074481856106bc565b90506107536080830184610667565b9695505050505050565b7f4e487b7100000000000000000000000000000000000000000000000000000000600052602260045260246000fd5b600060028204905060018216806107a457607f821691505b6020821081036107b7576107b661075d565b5b50919050565b60008190508160005260206000209050919050565b60006020601f8301049050919050565b600082821b905092915050565b60006008830261081f7fffffffffffffffffffffffffffffffffffffffffffffffffffffffffffffffff826107e2565b61082986836107e2565b95508019841693508086168417925050509392505050565b6000819050919050565b600061086661086161085c84610393565b610841565b610393565b9050919050565b6000819050919050565b6108808361084b565b61089461088c8261086d565b8484546107ef565b825550505050565b600090565b6108a961089c565b6108b4818484610877565b505050565b5b818110156108d8576108cd6000826108a1565b6001810190506108ba565b5050565b601f82111561091d576108ee816107bd565b6108f7846107d2565b81016020851015610906578190505b61091a610912856107d2565b8301826108b9565b50505b505050565b600082821c905092915050565b600061094060001984600802610922565b1980831691505092915050565b6000610959838361092f565b9150826002028217905092915050565b61097282610676565b67ffffffffffffffff81111561098b5761098a6103e4565b5b610995825461078c565b6109a08282856108dc565b600060209050601f8311600181146109d357600084156109c1578287015190505b6109cb858261094d565b865550610a33565b601f1984166109e1866107bd565b60005b82811015610a09578489015182556001820191506020850194506020810190506109e4565b86831015610a265784890151610a22601f89168261092f565b8355505b6001600288020188555050505b505050505050565b60006040820190508181036000830152610a5581856106bc565b9050610a646020830184610667565b939250505056fea264697066735822122035f2e47361eebd4ff3580c190dc2cc1b2590a56481190f1fb6156e9a690faf4f64736f6c63430008110033","opcodes":"PUSH1 0x80 PUSH1 0x40 MSTORE CALLVALUE DUP1 ISZERO PUSH2 0x10 JUMPI PUSH1 0x0 DUP1 REVERT JUMPDEST POP CALLER PUSH1 0x0 DUP1 PUSH2 0x100 EXP DUP2 SLOAD DUP2 PUSH20 0xFFFFFFFFFFFFFFFFFFFFFFFFFFFFFFFFFFFFFFFF MUL NOT AND SWAP1 DUP4 PUSH20 0xFFFFFFFFFFFFFFFFFFFFFFFFFFFFFFFFFFFFFFFF AND MUL OR SWAP1 SSTORE POP PUSH2 0xAA1 DUP1 PUSH2 0x60 PUSH1 0x0 CODECOPY PUSH1 0x0 RETURN INVALID PUSH1 0x80 PUSH1 0x40 MSTORE CALLVALUE DUP1 ISZERO PUSH2 0x10 JUMPI PUSH1 0x0 DUP1 REVERT JUMPDEST POP PUSH1 0x4 CALLDATASIZE LT PUSH2 0x41 JUMPI PUSH1 0x0 CALLDATALOAD PUSH1 0xE0 SHR DUP1 PUSH4 0xFFF86B6 EQ PUSH2 0x46 JUMPI DUP1 PUSH4 0x8DA5CB5B EQ PUSH2 0x62 JUMPI DUP1 PUSH4 0xBACE4B67 EQ PUSH2 0x80 JUMPI JUMPDEST PUSH1 0x0 DUP1 REVERT JUMPDEST PUSH2 0x60 PUSH1 0x4 DUP1 CALLDATASIZE SUB DUP2 ADD SWAP1 PUSH2 0x5B SWAP2 SWAP1 PUSH2 0x50F JUMP JUMPDEST PUSH2 0xB4 JUMP JUMPDEST STOP JUMPDEST PUSH2 0x6A PUSH2 0x18D JUMP JUMPDEST PUSH1 0x40 MLOAD PUSH2 0x77 SWAP2 SWAP1 PUSH2 0x61F JUMP JUMPDEST PUSH1 0x40 MLOAD DUP1 SWAP2 SUB SWAP1 RETURN JUMPDEST PUSH2 0x9A PUSH1 0x4 DUP1 CALLDATASIZE SUB DUP2 ADD SWAP1 PUSH2 0x95 SWAP2 SWAP1 PUSH2 0x63A JUMP JUMPDEST PUSH2 0x1B1 JUMP JUMPDEST PUSH1 0x40 MLOAD PUSH2 0xAB SWAP6 SWAP5 SWAP4 SWAP3 SWAP2 SWAP1 PUSH2 0x6F5 JUMP JUMPDEST PUSH1 0x40 MLOAD DUP1 SWAP2 SUB SWAP1 RETURN JUMPDEST PUSH1 0x0 PUSH1 0x40 MLOAD DUP1 PUSH1 0xA0 ADD PUSH1 0x40 MSTORE DUP1 DUP8 DUP2 MSTORE PUSH1 0x20 ADD DUP7 DUP2 MSTORE PUSH1 0x20 ADD DUP6 DUP2 MSTORE PUSH1 0x20 ADD DUP5 DUP2 MSTORE PUSH1 0x20 ADD DUP4 DUP2 MSTORE POP SWAP1 POP DUP1 PUSH1 0x1 PUSH1 0x0 DUP9 DUP2 MSTORE PUSH1 0x20 ADD SWAP1 DUP2 MSTORE PUSH1 0x20 ADD PUSH1 0x0 KECCAK256 PUSH1 0x0 DUP3 ADD MLOAD DUP2 PUSH1 0x0 ADD SSTORE PUSH1 0x20 DUP3 ADD MLOAD DUP2 PUSH1 0x1 ADD SWAP1 DUP2 PUSH2 0x112 SWAP2 SWAP1 PUSH2 0x969 JUMP JUMPDEST POP PUSH1 0x40 DUP3 ADD MLOAD DUP2 PUSH1 0x2 ADD SWAP1 DUP2 PUSH2 0x128 SWAP2 SWAP1 PUSH2 0x969 JUMP JUMPDEST POP PUSH1 0x60 DUP3 ADD MLOAD DUP2 PUSH1 0x3 ADD SWAP1 DUP2 PUSH2 0x13E SWAP2 SWAP1 PUSH2 0x969 JUMP JUMPDEST POP PUSH1 0x80 DUP3 ADD MLOAD DUP2 PUSH1 0x4 ADD SSTORE SWAP1 POP POP PUSH32 0x155A77B67DF8F5D208A8FF7144365D9A77188C75DBDC66F2A5A9163D31C766FE DUP6 DUP4 PUSH1 0x40 MLOAD PUSH2 0x17D SWAP3 SWAP2 SWAP1 PUSH2 0xA3B JUMP JUMPDEST PUSH1 0x40 MLOAD DUP1 SWAP2 SUB SWAP1 LOG1 POP POP POP POP POP POP JUMP JUMPDEST PUSH1 0x0 DUP1 SLOAD SWAP1 PUSH2 0x100 EXP SWAP1 DIV PUSH20 0xFFFFFFFFFFFFFFFFFFFFFFFFFFFFFFFFFFFFFFFF AND DUP2 JUMP JUMPDEST PUSH1 0x1 PUSH1 0x20 MSTORE DUP1 PUSH1 0x0 MSTORE PUSH1 0x40 PUSH1 0x0 KECCAK256 PUSH1 0x0 SWAP2 POP SWAP1 POP DUP1 PUSH1 0x0 ADD SLOAD SWAP1 DUP1 PUSH1 0x1 ADD DUP1 SLOAD PUSH2 0x1DA SWAP1 PUSH2 0x78C JUMP JUMPDEST DUP1 PUSH1 0x1F ADD PUSH1 0x20 DUP1 SWAP2 DIV MUL PUSH1 0x20 ADD PUSH1 0x40 MLOAD SWAP1 DUP2 ADD PUSH1 0x40 MSTORE DUP1 SWAP3 SWAP2 SWAP1 DUP2 DUP2 MSTORE PUSH1 0x20 ADD DUP3 DUP1 SLOAD PUSH2 0x206 SWAP1 PUSH2 0x78C JUMP JUMPDEST DUP1 ISZERO PUSH2 0x253 JUMPI DUP1 PUSH1 0x1F LT PUSH2 0x228 JUMPI PUSH2 0x100 DUP1 DUP4 SLOAD DIV MUL DUP4 MSTORE SWAP2 PUSH1 0x20 ADD SWAP2 PUSH2 0x253 JUMP JUMPDEST DUP3 ADD SWAP2 SWAP1 PUSH1 0x0 MSTORE PUSH1 0x20 PUSH1 0x0 KECCAK256 SWAP1 JUMPDEST DUP2 SLOAD DUP2 MSTORE SWAP1 PUSH1 0x1 ADD SWAP1 PUSH1 0x20 ADD DUP1 DUP4 GT PUSH2 0x236 JUMPI DUP3 SWAP1 SUB PUSH1 0x1F AND DUP3 ADD SWAP2 JUMPDEST POP POP POP POP POP SWAP1 DUP1 PUSH1 0x2 ADD DUP1 SLOAD PUSH2 0x268 SWAP1 PUSH2 0x78C JUMP JUMPDEST DUP1 PUSH1 0x1F ADD PUSH1 0x20 DUP1 SWAP2 DIV MUL PUSH1 0x20 ADD PUSH1 0x40 MLOAD SWAP1 DUP2 ADD PUSH1 0x40 MSTORE DUP1 SWAP3 SWAP2 SWAP1 DUP2 DUP2 MSTORE PUSH1 0x20 ADD DUP3 DUP1 SLOAD PUSH2 0x294 SWAP1 PUSH2 0x78C JUMP JUMPDEST DUP1 ISZERO PUSH2 0x2E1 JUMPI DUP1 PUSH1 0x1F LT PUSH2 0x2B6 JUMPI PUSH2 0x100 DUP1 DUP4 SLOAD DIV MUL DUP4 MSTORE SWAP2 PUSH1 0x20 ADD SWAP2 PUSH2 0x2E1 JUMP JUMPDEST DUP3 ADD SWAP2 SWAP1 PUSH1 0x0 MSTORE PUSH1 0x20 PUSH1 0x0 KECCAK256 SWAP1 JUMPDEST DUP2 SLOAD DUP2 MSTORE SWAP1 PUSH1 0x1 ADD SWAP1 PUSH1 0x20 ADD DUP1 DUP4 GT PUSH2 0x2C4 JUMPI DUP3 SWAP1 SUB PUSH1 0x1F AND DUP3 ADD SWAP2 JUMPDEST POP POP POP POP POP SWAP1 DUP1 PUSH1 0x3 ADD DUP1 SLOAD PUSH2 0x2F6 SWAP1 PUSH2 0x78C JUMP JUMPDEST DUP1 PUSH1 0x1F ADD PUSH1 0x20 DUP1 SWAP2 DIV MUL PUSH1 0x20 ADD PUSH1 0x40 MLOAD SWAP1 DUP2 ADD PUSH1 0x40 MSTORE DUP1 SWAP3 SWAP2 SWAP1 DUP2 DUP2 MSTORE PUSH1 0x20 ADD DUP3 DUP1 SLOAD PUSH2 0x322 SWAP1 PUSH2 0x78C JUMP JUMPDEST DUP1 ISZERO PUSH2 0x36F JUMPI DUP1 PUSH1 0x1F LT PUSH2 0x344 JUMPI PUSH2 0x100 DUP1 DUP4 SLOAD DIV MUL DUP4 MSTORE SWAP2 PUSH1 0x20 ADD SWAP2 PUSH2 0x36F JUMP JUMPDEST DUP3 ADD SWAP2 SWAP1 PUSH1 0x0 MSTORE PUSH1 0x20 PUSH1 0x0 KECCAK256 SWAP1 JUMPDEST DUP2 SLOAD DUP2 MSTORE SWAP1 PUSH1 0x1 ADD SWAP1 PUSH1 0x20 ADD DUP1 DUP4 GT PUSH2 0x352 JUMPI DUP3 SWAP1 SUB PUSH1 0x1F AND DUP3 ADD SWAP2 JUMPDEST POP POP POP POP POP SWAP1 DUP1 PUSH1 0x4 ADD SLOAD SWAP1 POP DUP6 JUMP JUMPDEST PUSH1 0x0 PUSH1 0x40 MLOAD SWAP1 POP SWAP1 JUMP JUMPDEST PUSH1 0x0 DUP1 REVERT JUMPDEST PUSH1 0x0 DUP1 REVERT JUMPDEST PUSH1 0x0 DUP2 SWAP1 POP SWAP2 SWAP1 POP JUMP JUMPDEST PUSH2 0x3A6 DUP2 PUSH2 0x393 JUMP JUMPDEST DUP2 EQ PUSH2 0x3B1 JUMPI PUSH1 0x0 DUP1 REVERT JUMPDEST POP JUMP JUMPDEST PUSH1 0x0 DUP2 CALLDATALOAD SWAP1 POP PUSH2 0x3C3 DUP2 PUSH2 0x39D JUMP JUMPDEST SWAP3 SWAP2 POP POP JUMP JUMPDEST PUSH1 0x0 DUP1 REVERT JUMPDEST PUSH1 0x0 DUP1 REVERT JUMPDEST PUSH1 0x0 PUSH1 0x1F NOT PUSH1 0x1F DUP4 ADD AND SWAP1 POP SWAP2 SWAP1 POP JUMP JUMPDEST PUSH32 0x4E487B7100000000000000000000000000000000000000000000000000000000 PUSH1 0x0 MSTORE PUSH1 0x41 PUSH1 0x4 MSTORE PUSH1 0x24 PUSH1 0x0 REVERT JUMPDEST PUSH2 0x41C DUP3 PUSH2 0x3D3 JUMP JUMPDEST DUP2 ADD DUP2 DUP2 LT PUSH8 0xFFFFFFFFFFFFFFFF DUP3 GT OR ISZERO PUSH2 0x43B JUMPI PUSH2 0x43A PUSH2 0x3E4 JUMP JUMPDEST JUMPDEST DUP1 PUSH1 0x40 MSTORE POP POP POP JUMP JUMPDEST PUSH1 0x0 PUSH2 0x44E PUSH2 0x37F JUMP JUMPDEST SWAP1 POP PUSH2 0x45A DUP3 DUP3 PUSH2 0x413 JUMP JUMPDEST SWAP2 SWAP1 POP JUMP JUMPDEST PUSH1 0x0 PUSH8 0xFFFFFFFFFFFFFFFF DUP3 GT ISZERO PUSH2 0x47A JUMPI PUSH2 0x479 PUSH2 0x3E4 JUMP JUMPDEST JUMPDEST PUSH2 0x483 DUP3 PUSH2 0x3D3 JUMP JUMPDEST SWAP1 POP PUSH1 0x20 DUP2 ADD SWAP1 POP SWAP2 SWAP1 POP JUMP JUMPDEST DUP3 DUP2 DUP4 CALLDATACOPY PUSH1 0x0 DUP4 DUP4 ADD MSTORE POP POP POP JUMP JUMPDEST PUSH1 0x0 PUSH2 0x4B2 PUSH2 0x4AD DUP5 PUSH2 0x45F JUMP JUMPDEST PUSH2 0x444 JUMP JUMPDEST SWAP1 POP DUP3 DUP2 MSTORE PUSH1 0x20 DUP2 ADD DUP5 DUP5 DUP5 ADD GT ISZERO PUSH2 0x4CE JUMPI PUSH2 0x4CD PUSH2 0x3CE JUMP JUMPDEST JUMPDEST PUSH2 0x4D9 DUP5 DUP3 DUP6 PUSH2 0x490 JUMP JUMPDEST POP SWAP4 SWAP3 POP POP POP JUMP JUMPDEST PUSH1 0x0 DUP3 PUSH1 0x1F DUP4 ADD SLT PUSH2 0x4F6 JUMPI PUSH2 0x4F5 PUSH2 0x3C9 JUMP JUMPDEST JUMPDEST DUP2 CALLDATALOAD PUSH2 0x506 DUP5 DUP3 PUSH1 0x20 DUP7 ADD PUSH2 0x49F JUMP JUMPDEST SWAP2 POP POP SWAP3 SWAP2 POP POP JUMP JUMPDEST PUSH1 0x0 DUP1 PUSH1 0x0 DUP1 PUSH1 0x0 PUSH1 0xA0 DUP7 DUP9 SUB SLT ISZERO PUSH2 0x52B JUMPI PUSH2 0x52A PUSH2 0x389 JUMP JUMPDEST JUMPDEST PUSH1 0x0 PUSH2 0x539 DUP9 DUP3 DUP10 ADD PUSH2 0x3B4 JUMP JUMPDEST SWAP6 POP POP PUSH1 0x20 DUP7 ADD CALLDATALOAD PUSH8 0xFFFFFFFFFFFFFFFF DUP2 GT ISZERO PUSH2 0x55A JUMPI PUSH2 0x559 PUSH2 0x38E JUMP JUMPDEST JUMPDEST PUSH2 0x566 DUP9 DUP3 DUP10 ADD PUSH2 0x4E1 JUMP JUMPDEST SWAP5 POP POP PUSH1 0x40 DUP7 ADD CALLDATALOAD PUSH8 0xFFFFFFFFFFFFFFFF DUP2 GT ISZERO PUSH2 0x587 JUMPI PUSH2 0x586 PUSH2 0x38E JUMP JUMPDEST JUMPDEST PUSH2 0x593 DUP9 DUP3 DUP10 ADD PUSH2 0x4E1 JUMP JUMPDEST SWAP4 POP POP PUSH1 0x60 DUP7 ADD CALLDATALOAD PUSH8 0xFFFFFFFFFFFFFFFF DUP2 GT ISZERO PUSH2 0x5B4 JUMPI PUSH2 0x5B3 PUSH2 0x38E JUMP JUMPDEST JUMPDEST PUSH2 0x5C0 DUP9 DUP3 DUP10 ADD PUSH2 0x4E1 JUMP JUMPDEST SWAP3 POP POP PUSH1 0x80 PUSH2 0x5D1 DUP9 DUP3 DUP10 ADD PUSH2 0x3B4 JUMP JUMPDEST SWAP2 POP POP SWAP3 SWAP6 POP SWAP3 SWAP6 SWAP1 SWAP4 POP JUMP JUMPDEST PUSH1 0x0 PUSH20 0xFFFFFFFFFFFFFFFFFFFFFFFFFFFFFFFFFFFFFFFF DUP3 AND SWAP1 POP SWAP2 SWAP1 POP JUMP JUMPDEST PUSH1 0x0 PUSH2 0x609 DUP3 PUSH2 0x5DE JUMP JUMPDEST SWAP1 POP SWAP2 SWAP1 POP JUMP JUMPDEST PUSH2 0x619 DUP2 PUSH2 0x5FE JUMP JUMPDEST DUP3 MSTORE POP POP JUMP JUMPDEST PUSH1 0x0 PUSH1 0x20 DUP3 ADD SWAP1 POP PUSH2 0x634 PUSH1 0x0 DUP4 ADD DUP5 PUSH2 0x610 JUMP JUMPDEST SWAP3 SWAP2 POP POP JUMP JUMPDEST PUSH1 0x0 PUSH1 0x20 DUP3 DUP5 SUB SLT ISZERO PUSH2 0x650 JUMPI PUSH2 0x64F PUSH2 0x389 JUMP JUMPDEST JUMPDEST PUSH1 0x0 PUSH2 0x65E DUP5 DUP3 DUP6 ADD PUSH2 0x3B4 JUMP JUMPDEST SWAP2 POP POP SWAP3 SWAP2 POP POP JUMP JUMPDEST PUSH2 0x670 DUP2 PUSH2 0x393 JUMP JUMPDEST DUP3 MSTORE POP POP JUMP JUMPDEST PUSH1 0x0 DUP2 MLOAD SWAP1 POP SWAP2 SWAP1 POP JUMP JUMPDEST PUSH1 0x0 DUP3 DUP3 MSTORE PUSH1 0x20 DUP3 ADD SWAP1 POP SWAP3 SWAP2 POP POP JUMP JUMPDEST PUSH1 0x0 JUMPDEST DUP4 DUP2 LT ISZERO PUSH2 0x6B0 JUMPI DUP1 DUP3 ADD MLOAD DUP2 DUP5 ADD MSTORE PUSH1 0x20 DUP2 ADD SWAP1 POP PUSH2 0x695 JUMP JUMPDEST PUSH1 0x0 DUP5 DUP5 ADD MSTORE POP POP POP POP JUMP JUMPDEST PUSH1 0x0 PUSH2 0x6C7 DUP3 PUSH2 0x676 JUMP JUMPDEST PUSH2 0x6D1 DUP2 DUP6 PUSH2 0x681 JUMP JUMPDEST SWAP4 POP PUSH2 0x6E1 DUP2 DUP6 PUSH1 0x20 DUP7 ADD PUSH2 0x692 JUMP JUMPDEST PUSH2 0x6EA DUP2 PUSH2 0x3D3 JUMP JUMPDEST DUP5 ADD SWAP2 POP POP SWAP3 SWAP2 POP POP JUMP JUMPDEST PUSH1 0x0 PUSH1 0xA0 DUP3 ADD SWAP1 POP PUSH2 0x70A PUSH1 0x0 DUP4 ADD DUP9 PUSH2 0x667 JUMP JUMPDEST DUP2 DUP2 SUB PUSH1 0x20 DUP4 ADD MSTORE PUSH2 0x71C DUP2 DUP8 PUSH2 0x6BC JUMP JUMPDEST SWAP1 POP DUP2 DUP2 SUB PUSH1 0x40 DUP4 ADD MSTORE PUSH2 0x730 DUP2 DUP7 PUSH2 0x6BC JUMP JUMPDEST SWAP1 POP DUP2 DUP2 SUB PUSH1 0x60 DUP4 ADD MSTORE PUSH2 0x744 DUP2 DUP6 PUSH2 0x6BC JUMP JUMPDEST SWAP1 POP PUSH2 0x753 PUSH1 0x80 DUP4 ADD DUP5 PUSH2 0x667 JUMP JUMPDEST SWAP7 SWAP6 POP POP POP POP POP POP JUMP JUMPDEST PUSH32 0x4E487B7100000000000000000000000000000000000000000000000000000000 PUSH1 0x0 MSTORE PUSH1 0x22 PUSH1 0x4 MSTORE PUSH1 0x24 PUSH1 0x0 REVERT JUMPDEST PUSH1 0x0 PUSH1 0x2 DUP3 DIV SWAP1 POP PUSH1 0x1 DUP3 AND DUP1 PUSH2 0x7A4 JUMPI PUSH1 0x7F DUP3 AND SWAP2 POP JUMPDEST PUSH1 0x20 DUP3 LT DUP2 SUB PUSH2 0x7B7 JUMPI PUSH2 0x7B6 PUSH2 0x75D JUMP JUMPDEST JUMPDEST POP SWAP2 SWAP1 POP JUMP JUMPDEST PUSH1 0x0 DUP2 SWAP1 POP DUP2 PUSH1 0x0 MSTORE PUSH1 0x20 PUSH1 0x0 KECCAK256 SWAP1 POP SWAP2 SWAP1 POP JUMP JUMPDEST PUSH1 0x0 PUSH1 0x20 PUSH1 0x1F DUP4 ADD DIV SWAP1 POP SWAP2 SWAP1 POP JUMP JUMPDEST PUSH1 0x0 DUP3 DUP3 SHL SWAP1 POP SWAP3 SWAP2 POP POP JUMP JUMPDEST PUSH1 0x0 PUSH1 0x8 DUP4 MUL PUSH2 0x81F PUSH32 0xFFFFFFFFFFFFFFFFFFFFFFFFFFFFFFFFFFFFFFFFFFFFFFFFFFFFFFFFFFFFFFFF DUP3 PUSH2 0x7E2 JUMP JUMPDEST PUSH2 0x829 DUP7 DUP4 PUSH2 0x7E2 JUMP JUMPDEST SWAP6 POP DUP1 NOT DUP5 AND SWAP4 POP DUP1 DUP7 AND DUP5 OR SWAP3 POP POP POP SWAP4 SWAP3 POP POP POP JUMP JUMPDEST PUSH1 0x0 DUP2 SWAP1 POP SWAP2 SWAP1 POP JUMP JUMPDEST PUSH1 0x0 PUSH2 0x866 PUSH2 0x861 PUSH2 0x85C DUP5 PUSH2 0x393 JUMP JUMPDEST PUSH2 0x841 JUMP JUMPDEST PUSH2 0x393 JUMP JUMPDEST SWAP1 POP SWAP2 SWAP1 POP JUMP JUMPDEST PUSH1 0x0 DUP2 SWAP1 POP SWAP2 SWAP1 POP JUMP JUMPDEST PUSH2 0x880 DUP4 PUSH2 0x84B JUMP JUMPDEST PUSH2 0x894 PUSH2 0x88C DUP3 PUSH2 0x86D JUMP JUMPDEST DUP5 DUP5 SLOAD PUSH2 0x7EF JUMP JUMPDEST DUP3 SSTORE POP POP POP POP JUMP JUMPDEST PUSH1 0x0 SWAP1 JUMP JUMPDEST PUSH2 0x8A9 PUSH2 0x89C JUMP JUMPDEST PUSH2 0x8B4 DUP2 DUP5 DUP5 PUSH2 0x877 JUMP JUMPDEST POP POP POP JUMP JUMPDEST JUMPDEST DUP2 DUP2 LT ISZERO PUSH2 0x8D8 JUMPI PUSH2 0x8CD PUSH1 0x0 DUP3 PUSH2 0x8A1 JUMP JUMPDEST PUSH1 0x1 DUP2 ADD SWAP1 POP PUSH2 0x8BA JUMP JUMPDEST POP POP JUMP JUMPDEST PUSH1 0x1F DUP3 GT ISZERO PUSH2 0x91D JUMPI PUSH2 0x8EE DUP2 PUSH2 0x7BD JUMP JUMPDEST PUSH2 0x8F7 DUP5 PUSH2 0x7D2 JUMP JUMPDEST DUP2 ADD PUSH1 0x20 DUP6 LT ISZERO PUSH2 0x906 JUMPI DUP2 SWAP1 POP JUMPDEST PUSH2 0x91A PUSH2 0x912 DUP6 PUSH2 0x7D2 JUMP JUMPDEST DUP4 ADD DUP3 PUSH2 0x8B9 JUMP JUMPDEST POP POP JUMPDEST POP POP POP JUMP JUMPDEST PUSH1 0x0 DUP3 DUP3 SHR SWAP1 POP SWAP3 SWAP2 POP POP JUMP JUMPDEST PUSH1 0x0 PUSH2 0x940 PUSH1 0x0 NOT DUP5 PUSH1 0x8 MUL PUSH2 0x922 JUMP JUMPDEST NOT DUP1 DUP4 AND SWAP2 POP POP SWAP3 SWAP2 POP POP JUMP JUMPDEST PUSH1 0x0 PUSH2 0x959 DUP4 DUP4 PUSH2 0x92F JUMP JUMPDEST SWAP2 POP DUP3 PUSH1 0x2 MUL DUP3 OR SWAP1 POP SWAP3 SWAP2 POP POP JUMP JUMPDEST PUSH2 0x972 DUP3 PUSH2 0x676 JUMP JUMPDEST PUSH8 0xFFFFFFFFFFFFFFFF DUP2 GT ISZERO PUSH2 0x98B JUMPI PUSH2 0x98A PUSH2 0x3E4 JUMP JUMPDEST JUMPDEST PUSH2 0x995 DUP3 SLOAD PUSH2 0x78C JUMP JUMPDEST PUSH2 0x9A0 DUP3 DUP3 DUP6 PUSH2 0x8DC JUMP JUMPDEST PUSH1 0x0 PUSH1 0x20 SWAP1 POP PUSH1 0x1F DUP4 GT PUSH1 0x1 DUP2 EQ PUSH2 0x9D3 JUMPI PUSH1 0x0 DUP5 ISZERO PUSH2 0x9C1 JUMPI DUP3 DUP8 ADD MLOAD SWAP1 POP JUMPDEST PUSH2 0x9CB DUP6 DUP3 PUSH2 0x94D JUMP JUMPDEST DUP7 SSTORE POP PUSH2 0xA33 JUMP JUMPDEST PUSH1 0x1F NOT DUP5 AND PUSH2 0x9E1 DUP7 PUSH2 0x7BD JUMP JUMPDEST PUSH1 0x0 JUMPDEST DUP3 DUP2 LT ISZERO PUSH2 0xA09 JUMPI DUP5 DUP10 ADD MLOAD DUP3 SSTORE PUSH1 0x1 DUP3 ADD SWAP2 POP PUSH1 0x20 DUP6 ADD SWAP5 POP PUSH1 0x20 DUP2 ADD SWAP1 POP PUSH2 0x9E4 JUMP JUMPDEST DUP7 DUP4 LT ISZERO PUSH2 0xA26 JUMPI DUP5 DUP10 ADD MLOAD PUSH2 0xA22 PUSH1 0x1F DUP10 AND DUP3 PUSH2 0x92F JUMP JUMPDEST DUP4 SSTORE POP JUMPDEST PUSH1 0x1 PUSH1 0x2 DUP9 MUL ADD DUP9 SSTORE POP POP POP JUMPDEST POP POP POP POP POP POP JUMP JUMPDEST PUSH1 0x0 PUSH1 0x40 DUP3 ADD SWAP1 POP DUP2 DUP2 SUB PUSH1 0x0 DUP4 ADD MSTORE PUSH2 0xA55 DUP2 DUP6 PUSH2 0x6BC JUMP JUMPDEST SWAP1 POP PUSH2 0xA64 PUSH1 0x20 DUP4 ADD DUP5 PUSH2 0x667 JUMP JUMPDEST SWAP4 SWAP3 POP POP POP JUMP INVALID LOG2 PUSH5 0x6970667358 0x22 SLT KECCAK256 CALLDATALOAD CALLCODE 0xE4 PUSH20 0x61EEBD4FF3580C190DC2CC1B2590A56481190F1F 0xB6 ISZERO PUSH15 0x9A690FAF4F64736F6C634300081100 CALLER "},"methodIdentifiers":{"itemsMap(uint256)":"bace4b67","owner()":"8da5cb5b","product(uint256,string,string,string,uint256)":"0fff86b6"}}}}}