{
  "_format": "hh-sol-artifact-1",
  "contractName": "Blockcart",
  "sourceName": "contracts/Blockcart.sol",
  "abi": [
    {
      "inputs": [],
      "stateMutability": "nonpayable",
      "type": "constructor"
    },
    {
      "anonymous": false,
      "inputs": [
        {
          "indexed": false,
          "internalType": "address",
          "name": "buyer",
          "type": "address"
        },
        {
          "indexed": false,
          "internalType": "uint256",
          "name": "orderId",
          "type": "uint256"
        },
        {
          "indexed": false,
          "internalType": "uint256",
          "name": "itemId",
          "type": "uint256"
        }
      ],
      "name": "Buy",
      "type": "event"
    },
    {
      "anonymous": false,
      "inputs": [
        {
          "indexed": false,
          "internalType": "string",
          "name": "name",
          "type": "string"
        },
        {
          "indexed": false,
          "internalType": "uint256",
          "name": "cost",
          "type": "uint256"
        },
        {
          "indexed": false,
          "internalType": "uint256",
          "name": "quantity",
          "type": "uint256"
        }
      ],
      "name": "List",
      "type": "event"
    },
    {
      "inputs": [
        {
          "internalType": "uint256",
          "name": "_id",
          "type": "uint256"
        }
      ],
      "name": "buy",
      "outputs": [],
      "stateMutability": "payable",
      "type": "function"
    },
    {
      "inputs": [
        {
          "internalType": "uint256",
          "name": "",
          "type": "uint256"
        }
      ],
      "name": "items",
      "outputs": [
        {
          "internalType": "uint256",
          "name": "id",
          "type": "uint256"
        },
        {
          "internalType": "string",
          "name": "name",
          "type": "string"
        },
        {
          "internalType": "string",
          "name": "category",
          "type": "string"
        },
        {
          "internalType": "string",
          "name": "image",
          "type": "string"
        },
        {
          "internalType": "uint256",
          "name": "cost",
          "type": "uint256"
        },
        {
          "internalType": "uint256",
          "name": "rating",
          "type": "uint256"
        },
        {
          "internalType": "uint256",
          "name": "stock",
          "type": "uint256"
        },
        {
          "internalType": "string",
          "name": "description",
          "type": "string"
        }
      ],
      "stateMutability": "view",
      "type": "function"
    },
    {
      "inputs": [
        {
          "internalType": "uint256",
          "name": "_id",
          "type": "uint256"
        },
        {
          "internalType": "string",
          "name": "_name",
          "type": "string"
        },
        {
          "internalType": "string",
          "name": "_category",
          "type": "string"
        },
        {
          "internalType": "string",
          "name": "_image",
          "type": "string"
        },
        {
          "internalType": "uint256",
          "name": "_cost",
          "type": "uint256"
        },
        {
          "internalType": "uint256",
          "name": "_rating",
          "type": "uint256"
        },
        {
          "internalType": "uint256",
          "name": "_stock",
          "type": "uint256"
        },
        {
          "internalType": "string",
          "name": "_description",
          "type": "string"
        }
      ],
      "name": "list",
      "outputs": [],
      "stateMutability": "nonpayable",
      "type": "function"
    },
    {
      "inputs": [
        {
          "internalType": "address",
          "name": "",
          "type": "address"
        }
      ],
      "name": "orderCount",
      "outputs": [
        {
          "internalType": "uint256",
          "name": "",
          "type": "uint256"
        }
      ],
      "stateMutability": "view",
      "type": "function"
    },
    {
      "inputs": [
        {
          "internalType": "address",
          "name": "",
          "type": "address"
        },
        {
          "internalType": "uint256",
          "name": "",
          "type": "uint256"
        }
      ],
      "name": "orders",
      "outputs": [
        {
          "internalType": "uint256",
          "name": "time",
          "type": "uint256"
        },
        {
          "components": [
            {
              "internalType": "uint256",
              "name": "id",
              "type": "uint256"
            },
            {
              "internalType": "string",
              "name": "name",
              "type": "string"
            },
            {
              "internalType": "string",
              "name": "category",
              "type": "string"
            },
            {
              "internalType": "string",
              "name": "image",
              "type": "string"
            },
            {
              "internalType": "uint256",
              "name": "cost",
              "type": "uint256"
            },
            {
              "internalType": "uint256",
              "name": "rating",
              "type": "uint256"
            },
            {
              "internalType": "uint256",
              "name": "stock",
              "type": "uint256"
            },
            {
              "internalType": "string",
              "name": "description",
              "type": "string"
            }
          ],
          "internalType": "struct Blockcart.Item",
          "name": "item",
          "type": "tuple"
        }
      ],
      "stateMutability": "view",
      "type": "function"
    },
    {
      "inputs": [],
      "name": "owner",
      "outputs": [
        {
          "internalType": "address",
          "name": "",
          "type": "address"
        }
      ],
      "stateMutability": "view",
      "type": "function"
    },
    {
      "inputs": [],
      "name": "ownerAddress",
      "outputs": [
        {
          "internalType": "address",
          "name": "",
          "type": "address"
        }
      ],
      "stateMutability": "view",
      "type": "function"
    },
    {
      "inputs": [],
      "name": "withdraw",
      "outputs": [],
      "stateMutability": "payable",
      "type": "function"
    }
  ],
  "bytecode": "0x6080604052733c44cdddb6a900fa2b585dd299e03d12fa4293bc600160006101000a81548173ffffffffffffffffffffffffffffffffffffffff021916908373ffffffffffffffffffffffffffffffffffffffff16021790555034801561006557600080fd5b50336000806101000a81548173ffffffffffffffffffffffffffffffffffffffff021916908373ffffffffffffffffffffffffffffffffffffffff16021790555061199c806100b56000396000f3fe60806040526004361061007b5760003560e01c80638f84aa091161004e5780638f84aa0914610130578063bfb231d21461015b578063d96a094a1461019f578063f752055e146101bb5761007b565b80633ccfd60b14610080578063713d856b1461008a578063793b8c6d146100c75780638da5cb5b14610105575b600080fd5b6100886101e4565b005b34801561009657600080fd5b506100b160048036038101906100ac9190610f2b565b6102d7565b6040516100be9190610f71565b60405180910390f35b3480156100d357600080fd5b506100ee60048036038101906100e99190610fb8565b6102ef565b6040516100fc92919061115c565b60405180910390f35b34801561011157600080fd5b5061011a61059b565b604051610127919061119b565b60405180910390f35b34801561013c57600080fd5b506101456105bf565b604051610152919061119b565b60405180910390f35b34801561016757600080fd5b50610182600480360381019061017d91906111b6565b6105e5565b60405161019698979695949392919061122d565b60405180910390f35b6101b960048036038101906101b491906111b6565b61084d565b005b3480156101c757600080fd5b506101e260048036038101906101dd91906113fc565b610d46565b005b60008054906101000a900473ffffffffffffffffffffffffffffffffffffffff1673ffffffffffffffffffffffffffffffffffffffff163373ffffffffffffffffffffffffffffffffffffffff161461023c57600080fd5b6000600160009054906101000a900473ffffffffffffffffffffffffffffffffffffffff1673ffffffffffffffffffffffffffffffffffffffff164760405161028490611553565b60006040518083038185875af1925050503d80600081146102c1576040519150601f19603f3d011682016040523d82523d6000602084013e6102c6565b606091505b50509050806102d457600080fd5b50565b60046020528060005260406000206000915090505481565b60036020528160005260406000206020528060005260406000206000915091505080600001549080600101604051806101000160405290816000820154815260200160018201805461034090611597565b80601f016020809104026020016040519081016040528092919081815260200182805461036c90611597565b80156103b95780601f1061038e576101008083540402835291602001916103b9565b820191906000526020600020905b81548152906001019060200180831161039c57829003601f168201915b505050505081526020016002820180546103d290611597565b80601f01602080910402602001604051908101604052809291908181526020018280546103fe90611597565b801561044b5780601f106104205761010080835404028352916020019161044b565b820191906000526020600020905b81548152906001019060200180831161042e57829003601f168201915b5050505050815260200160038201805461046490611597565b80601f016020809104026020016040519081016040528092919081815260200182805461049090611597565b80156104dd5780601f106104b2576101008083540402835291602001916104dd565b820191906000526020600020905b8154815290600101906020018083116104c057829003601f168201915b5050505050815260200160048201548152602001600582015481526020016006820154815260200160078201805461051490611597565b80601f016020809104026020016040519081016040528092919081815260200182805461054090611597565b801561058d5780601f106105625761010080835404028352916020019161058d565b820191906000526020600020905b81548152906001019060200180831161057057829003601f168201915b505050505081525050905082565b60008054906101000a900473ffffffffffffffffffffffffffffffffffffffff1681565b600160009054906101000a900473ffffffffffffffffffffffffffffffffffffffff1681565b600260205280600052604060002060009150905080600001549080600101805461060e90611597565b80601f016020809104026020016040519081016040528092919081815260200182805461063a90611597565b80156106875780601f1061065c57610100808354040283529160200191610687565b820191906000526020600020905b81548152906001019060200180831161066a57829003601f168201915b50505050509080600201805461069c90611597565b80601f01602080910402602001604051908101604052809291908181526020018280546106c890611597565b80156107155780601f106106ea57610100808354040283529160200191610715565b820191906000526020600020905b8154815290600101906020018083116106f857829003601f168201915b50505050509080600301805461072a90611597565b80601f016020809104026020016040519081016040528092919081815260200182805461075690611597565b80156107a35780601f10610778576101008083540402835291602001916107a3565b820191906000526020600020905b81548152906001019060200180831161078657829003601f168201915b5050505050908060040154908060050154908060060154908060070180546107ca90611597565b80601f01602080910402602001604051908101604052809291908181526020018280546107f690611597565b80156108435780601f1061081857610100808354040283529160200191610843565b820191906000526020600020905b81548152906001019060200180831161082657829003601f168201915b5050505050905088565b600060026000838152602001908152602001600020604051806101000160405290816000820154815260200160018201805461088890611597565b80601f01602080910402602001604051908101604052809291908181526020018280546108b490611597565b80156109015780601f106108d657610100808354040283529160200191610901565b820191906000526020600020905b8154815290600101906020018083116108e457829003601f168201915b5050505050815260200160028201805461091a90611597565b80601f016020809104026020016040519081016040528092919081815260200182805461094690611597565b80156109935780601f1061096857610100808354040283529160200191610993565b820191906000526020600020905b81548152906001019060200180831161097657829003601f168201915b505050505081526020016003820180546109ac90611597565b80601f01602080910402602001604051908101604052809291908181526020018280546109d890611597565b8015610a255780601f106109fa57610100808354040283529160200191610a25565b820191906000526020600020905b815481529060010190602001808311610a0857829003601f168201915b50505050508152602001600482015481526020016005820154815260200160068201548152602001600782018054610a5c90611597565b80601f0160208091040260200160405190810160405280929190818152602001828054610a8890611597565b8015610ad55780601f10610aaa57610100808354040283529160200191610ad5565b820191906000526020600020905b815481529060010190602001808311610ab857829003601f168201915b50505050508152505090508060800151341015610af157600080fd5b60008160c0015111610b0257600080fd5b60006040518060400160405280428152602001838152509050600460003373ffffffffffffffffffffffffffffffffffffffff1673ffffffffffffffffffffffffffffffffffffffff1681526020019081526020016000206000815480929190610b6b906115f7565b919050555080600360003373ffffffffffffffffffffffffffffffffffffffff1673ffffffffffffffffffffffffffffffffffffffff1681526020019081526020016000206000600460003373ffffffffffffffffffffffffffffffffffffffff1673ffffffffffffffffffffffffffffffffffffffff16815260200190815260200160002054815260200190815260200160002060008201518160000155602082015181600101600082015181600001556020820151816001019081610c3291906117eb565b506040820151816002019081610c4891906117eb565b506060820151816003019081610c5e91906117eb565b506080820151816004015560a0820151816005015560c0820151816006015560e0820151816007019081610c9291906117eb565b50505090505060018260c00151610ca991906118bd565b60026000858152602001908152602001600020600601819055507f1cbc5ab135991bd2b6a4b034a04aa2aa086dac1371cb9b16b8b5e2ed6b036bed33600460003373ffffffffffffffffffffffffffffffffffffffff1673ffffffffffffffffffffffffffffffffffffffff168152602001908152602001600020548460000151604051610d39939291906118f1565b60405180910390a1505050565b60008054906101000a900473ffffffffffffffffffffffffffffffffffffffff1673ffffffffffffffffffffffffffffffffffffffff163373ffffffffffffffffffffffffffffffffffffffff1614610d9e57600080fd5b60006040518061010001604052808a815260200189815260200188815260200187815260200186815260200185815260200184815260200183815250905080600260008b8152602001908152602001600020600082015181600001556020820151816001019081610e0f91906117eb565b506040820151816002019081610e2591906117eb565b506060820151816003019081610e3b91906117eb565b506080820151816004015560a0820151816005015560c0820151816006015560e0820151816007019081610e6f91906117eb565b509050507ffdbe2a012c10ec01592653978eaa09b5ca60b143a0e617505b2ebcbd911ec5b8888685604051610ea693929190611928565b60405180910390a1505050505050505050565b6000604051905090565b600080fd5b600080fd5b600073ffffffffffffffffffffffffffffffffffffffff82169050919050565b6000610ef882610ecd565b9050919050565b610f0881610eed565b8114610f1357600080fd5b50565b600081359050610f2581610eff565b92915050565b600060208284031215610f4157610f40610ec3565b5b6000610f4f84828501610f16565b91505092915050565b6000819050919050565b610f6b81610f58565b82525050565b6000602082019050610f866000830184610f62565b92915050565b610f9581610f58565b8114610fa057600080fd5b50565b600081359050610fb281610f8c565b92915050565b60008060408385031215610fcf57610fce610ec3565b5b6000610fdd85828601610f16565b9250506020610fee85828601610fa3565b9150509250929050565b61100181610f58565b82525050565b600081519050919050565b600082825260208201905092915050565b60005b83811015611041578082015181840152602081019050611026565b60008484015250505050565b6000601f19601f8301169050919050565b600061106982611007565b6110738185611012565b9350611083818560208601611023565b61108c8161104d565b840191505092915050565b6000610100830160008301516110b06000860182610ff8565b50602083015184820360208601526110c8828261105e565b915050604083015184820360408601526110e2828261105e565b915050606083015184820360608601526110fc828261105e565b91505060808301516111116080860182610ff8565b5060a083015161112460a0860182610ff8565b5060c083015161113760c0860182610ff8565b5060e083015184820360e086015261114f828261105e565b9150508091505092915050565b60006040820190506111716000830185610f62565b81810360208301526111838184611097565b90509392505050565b61119581610eed565b82525050565b60006020820190506111b0600083018461118c565b92915050565b6000602082840312156111cc576111cb610ec3565b5b60006111da84828501610fa3565b91505092915050565b600082825260208201905092915050565b60006111ff82611007565b61120981856111e3565b9350611219818560208601611023565b6112228161104d565b840191505092915050565b600061010082019050611243600083018b610f62565b8181036020830152611255818a6111f4565b9050818103604083015261126981896111f4565b9050818103606083015261127d81886111f4565b905061128c6080830187610f62565b61129960a0830186610f62565b6112a660c0830185610f62565b81810360e08301526112b881846111f4565b90509998505050505050505050565b600080fd5b600080fd5b7f4e487b7100000000000000000000000000000000000000000000000000000000600052604160045260246000fd5b6113098261104d565b810181811067ffffffffffffffff82111715611328576113276112d1565b5b80604052505050565b600061133b610eb9565b90506113478282611300565b919050565b600067ffffffffffffffff821115611367576113666112d1565b5b6113708261104d565b9050602081019050919050565b82818337600083830152505050565b600061139f61139a8461134c565b611331565b9050828152602081018484840111156113bb576113ba6112cc565b5b6113c684828561137d565b509392505050565b600082601f8301126113e3576113e26112c7565b5b81356113f384826020860161138c565b91505092915050565b600080600080600080600080610100898b03121561141d5761141c610ec3565b5b600061142b8b828c01610fa3565b985050602089013567ffffffffffffffff81111561144c5761144b610ec8565b5b6114588b828c016113ce565b975050604089013567ffffffffffffffff81111561147957611478610ec8565b5b6114858b828c016113ce565b965050606089013567ffffffffffffffff8111156114a6576114a5610ec8565b5b6114b28b828c016113ce565b95505060806114c38b828c01610fa3565b94505060a06114d48b828c01610fa3565b93505060c06114e58b828c01610fa3565b92505060e089013567ffffffffffffffff81111561150657611505610ec8565b5b6115128b828c016113ce565b9150509295985092959890939650565b600081905092915050565b50565b600061153d600083611522565b91506115488261152d565b600082019050919050565b600061155e82611530565b9150819050919050565b7f4e487b7100000000000000000000000000000000000000000000000000000000600052602260045260246000fd5b600060028204905060018216806115af57607f821691505b6020821081036115c2576115c1611568565b5b50919050565b7f4e487b7100000000000000000000000000000000000000000000000000000000600052601160045260246000fd5b600061160282610f58565b91507fffffffffffffffffffffffffffffffffffffffffffffffffffffffffffffffff8203611634576116336115c8565b5b600182019050919050565b60008190508160005260206000209050919050565b60006020601f8301049050919050565b600082821b905092915050565b6000600883026116a17fffffffffffffffffffffffffffffffffffffffffffffffffffffffffffffffff82611664565b6116ab8683611664565b95508019841693508086168417925050509392505050565b6000819050919050565b60006116e86116e36116de84610f58565b6116c3565b610f58565b9050919050565b6000819050919050565b611702836116cd565b61171661170e826116ef565b848454611671565b825550505050565b600090565b61172b61171e565b6117368184846116f9565b505050565b5b8181101561175a5761174f600082611723565b60018101905061173c565b5050565b601f82111561179f576117708161163f565b61177984611654565b81016020851015611788578190505b61179c61179485611654565b83018261173b565b50505b505050565b600082821c905092915050565b60006117c2600019846008026117a4565b1980831691505092915050565b60006117db83836117b1565b9150826002028217905092915050565b6117f482611007565b67ffffffffffffffff81111561180d5761180c6112d1565b5b6118178254611597565b61182282828561175e565b600060209050601f8311600181146118555760008415611843578287015190505b61184d85826117cf565b8655506118b5565b601f1984166118638661163f565b60005b8281101561188b57848901518255600182019150602085019450602081019050611866565b868310156118a857848901516118a4601f8916826117b1565b8355505b6001600288020188555050505b505050505050565b60006118c882610f58565b91506118d383610f58565b92508282039050818111156118eb576118ea6115c8565b5b92915050565b6000606082019050611906600083018661118c565b6119136020830185610f62565b6119206040830184610f62565b949350505050565b6000606082019050818103600083015261194281866111f4565b90506119516020830185610f62565b61195e6040830184610f62565b94935050505056fea26469706673582212206f788fc89a60f9982580ba08bde970805ccf9126d2110646b9a5459ecbd7f6ab64736f6c63430008110033",
  "linkReferences": {},
  "deployedLinkReferences": {}
}